:100000000C943B010C9482010C9482010C948201AB
:100010000C9482010C9482010C9482010C94820154
:100020000C9482010C9482010C94031B0C94D71B3A
:100030000C9445160C9482010C9482010C9482015C
:100040000C9482010C9482010C9482010C94820124
:100050000C9482010C949C160C9482010C948201E5
:100060000C9482010C9482010C9482010C94820104
:100070000C9482010C9482010C9482010C948201F4
:100080000C9482010C9482010C9482010C948201E4
:100090000C9482010C9482010C9482010C948201D4
:1000A0000C9482010C9482010C948201165C1E0057
:1000B0001F0020002100220023002400250026002C
:1000C00027002D002E002A002B0014001A00080023
:1000D000150017001C0018000C00120013002F0060
:1000E00030003100390004001600070009000A0042
:1000F0000B000D000E000F0033003400000028003C
:10010000E10000001D001B000600190005001100A1
:1001100010003600370038000000E500E000E30082
:10012000E2000000000000002C00000000000000C1
:10013000E600E7007600E0001003700072006F0038
:1001400074006F003600300000001E03680061007C
:1001500072007200690073006F006E006D006F0026
:100160006C006C006F0079000000040309040902B0
:100170003B00020100A0FA09040000010301010094
:100180000921110100012240000705810308000A2E
:1001900009040100010300000009211101000122EE
:1001A0007B000705820320000A1201000200000004
:1001B00008EDFE000001000102000105010902A195
:1001C0000185020901A10005091901290815002569
:1001D0000195087501810205010930093115812554
:1001E0007F95027508810609381581257F9501756F
:1001F000088106050C0A38021581257F95017508CE
:100200008106C0C005010980A101850319012AB733
:1002100000150126B700950175108100C0050C0975
:1002200001A101850419012AA002150126A0029549
:100230000175108100C005010906A101050719E03B
:1002400029E71500250195087501810295017508BA
:1002500081010507190029FF150026FF0095067585
:100260000881000508190129059505750191029578
:100270000175039101C011241FBECFEFDAE0DEBF8C
:10028000CDBF04B603FE27C080916A0290916B0235
:10029000A0916C02B0916D028730904BA740B04B9B
:1002A000D1F410926A0210926B0210926C021092BA
:1002B0006D0214BE84B7877F84BF0FB6F894A895EB
:1002C00080916000886180936000109260000FBE92
:1002D000E0E0F8E3099511E0A0E0B1E0E8E5FCE337
:1002E00002C005900D92AA38B107D9F722E0AAE81A
:1002F000B1E001C01D92AA36B207E1F70E94A0103A
:100300000C94061E0C94000081E0089581E008958D
:100310000C94860108950C948A011F93CF93DF9368
:1003200000D000D00F92CDB7DEB749835A836B83DC
:1003300030918C0189819A8131111DC06623B9F0F9
:100340002223A9F00E944607182F682F89819A81DD
:100350000E94F20669817A81812F0F900F900F9091
:100360000F900F90DF91CF911F910C94010E0E947E
:100370001E07182FEFCF0E94460769817A81EDCFC3
:10038000FC01262F408151816281738184810C940C
:100390008D0181E00895CF93DF93EC0160E00E942E
:1003A000C001BE01DF91CF910C948B010E940D0F13
:1003B0000E9447020C94320F0C94350F08950E944E
:1003C0009B050E94DE012FEF84E39CE021508040DA
:1003D0009040E1F700C000000C94C0160F931F93EB
:1003E000CF93DF938C0161E00E94C001EC01B80162
:1003F0000E9488018823A9F1B801CE010E94A213AE
:10040000882379F1B801CE010E94F413882349F1C1
:10041000B801CE010E941E15882319F1F8018281CE
:10042000882361F0CB35FDE5DF0721F170F4C115BC
:10043000ECE5DE07A1F0CF3DDC45C9F0C801DF9156
:10044000CF911F910F910C948401CC358DE5D80785
:10045000A1F0CD35DD4591F70E94AB0AEFCF0E94A8
:10046000DF0180E0DF91CF911F910F9108950E94ED
:10047000150CF7CF0E94B40AE1CF0E94B70ADECF75
:1004800008950C94400281E008950C94430208956D
:10049000CF93C82F0E9441028C2FCF910C9445021C
:1004A000CF93DF93CDB7DEB72B970FB6F894DEBFAF
:1004B0000FBECDBF4F83588769877A878B876111BD
:1004C0000E94DA0A1E821D8285E0FE013796DE0157
:1004D000119601900D928A95E1F78C819D81892B6F
:1004E00089F449815A816B817C818D819E810E9432
:1004F000DA092B960FB6F894DEBF0FBECDBFDF91A1
:10050000CF91089589819A8189238F3F51F3CE013C
:1005100001960E94C9018111E4CFEBCFFC018081DB
:1005200091810C948807CF93C82F882309F447C082
:100530008CEF8C0F813AA0F46C2F80910001909188
:1005400001010E94B015882329F08C2F0E947B0A9C
:100550000E94FD0A8C2F0E94740ACF910C94FD0A10
:1005600080E28C0F883048F4C77081E001C0880FAA
:10057000CA95EAF70E94BD0AF0CFEBE5EC0FE33035
:1005800040F4F0E0ED5BFE4F808190E0CF910C9461
:100590007215E8E5EC0FE73150F4F0E0EE0FFF1FC5
:1005A000EB5EFE4F80819181CF910C948815CD3EFA
:1005B00030F08C2F0E942E11CF910C940112CF910C
:1005C0000895882361F19CEF980F913A20F40E94DE
:1005D0007B0A0C94FD0A90E2980F983050F48770D3
:1005E00091E001C0990F8A95EAF7892F0E94C30A0A
:1005F000F0CF9BE5980F933020F490E080E00C94CE
:10060000721598E5980F973120F490E080E00C94F3
:1006100088158D3E20F00E9488110C9401120895D7
:100620001F93CF93DF93182FEB010E949302209723
:1006300031F4812FDF91CF911F910C94E1028FE96A
:100640009FE00197F1F700C000002197F0CF70E024
:1006500060E0893311F460E570E00C9410038823A6
:1006600021F00E94BD0A0C94FD0A0895882321F010
:100670000E94C30A0C94FD0A0895BF92CF92DF92A4
:10068000EF92FF920F931F93CF93DF936C01D62FBE
:10069000C72FFC011281058102950F700E94920AFA
:1006A000E82E8823A1F0E12E112389F08C2F807F82
:1006B000803429F080E28D0FE12C883040F082E018
:1006C0000E944E0B0E94920A91E0E82EE926BC2E71
:1006D000B2949FE0B922FBE0FB1598F1EB2DF0E01E
:1006E000E85FF14E0C949D1D0C2F0F70C07F11F030
:1006F0000295007F1123A9F0002359F080E28D0FAD
:10070000883010F0D11109C0802F0E94BD0A0E94CC
:10071000FD0A8D2F0E94930214C0802F0E94CD0AE3
:10072000F6CF8D2F0E94E102002359F080E28D0F59
:10073000883010F0D1112CC0802F0E94C30A0E9473
:10074000FD0A2B2D2850330B2430310520F40E9454
:100750004D150E944802EE2009F48EC10E948E0AB7
:1007600080FD8AC1F60112820E94880A0E94560604
:10077000C6010E945D050E94880ADF91CF911F91FA
:100780000F91FF90EF90DF90CF90BF900C94770681
:10079000802F0E94D30AD3CF2C2F2F70F22EC07F30
:1007A000C03219F0F29480EFF822DD2369F0D130E5
:1007B00049F1112391F1002351F1F601858180FF68
:1007C000A8CF8F70858323C0112381F0011106C04B
:1007D0000E94E00A8F290E942F03B3CF0130C1F796
:1007E0000E94E00A8F290E94E60AABCF011106C0E1
:1007F0000E94F30A8F2D0E943603A3CF013009F423
:10080000A0CFF6CF112329F0063008F09ACF8F2D14
:10081000E2CF053008F095CFEDCF002359F3D9335F
:1008200049F4FFEF27EE33E0F15020403040E1F78C
:1008300000C000008D2F0E94E10283CF8C2F86958F
:100840008695837069F0813009F07BCF8D2F9C2FC6
:100850009370111102C090E080E00E94881571CF62
:100860008D2F9C2F9370111102C090E080E00E94A8
:10087000721567CF8D2F112329F00E942E110E942F
:1008800001125FCF0E948811FACF8C2F837009F07C
:1008900041C0111156CF4D2F429546954770440FD8
:1008A000440F0D2F0F7010E030E020E0042E04C044
:1008B000000F111F221F331F0A94D2F760E070E06F
:1008C000CB01D4FF0FC06FE070E080E090E004C087
:1008D000660F771F881F991F4A95D2F7609570950C
:1008E00080959095C695C695C370602B712B822B11
:1008F000932BC23049F058F4C13019F00E94080619
:1009000020CF0E94F6051DCF0E941A061ACF0E9422
:10091000F40517CF8695112311F08C2F8170882351
:1009200009F40FCF4D2F429546954770440F440F61
:100930000D2F0F7010E030E020E0042E04C0000FF7
:10094000111F221F331F0A94D2F760E070E0CB0121
:10095000D4FF0FC06FE070E080E090E004C0660F4D
:10096000771F881F991F4A95D2F7609570958095DB
:100970009095C695C695C370602B712B822B932BD7
:10098000C23049F058F4C13019F00E94CD06D9CEDA
:100990000E94BB06D6CE0E94DF06D3CE0E94300650
:1009A000D0CECF70112329F08C2F0E9456068D2FA8
:1009B00012CF8D2F0E9436038C2F0E947706C1CE56
:1009C000D23F89F160F4D03FC9F0D13F29F1112322
:1009D00009F442C001119DCE8C2F8F7121C0D33FED
:1009E00039F1D43FA1F7112369F1CF718C2F0E9407
:1009F000560663E08C2F0E94330BA3CE112341F0E7
:100A0000053008F09ECE8C2F8F710E949A0699CEE9
:100A1000063008F096CEF7CF8C2F8F71112369F234
:100A20000E9456068ECE8C2F8F711123C9F3C5CF2D
:100A3000112329F08C2F8F710E94410682CE0E94D3
:100A40003C067FCE81E00E944E0B023008F479CE46
:100A500082E00E944E0B75CE002359F0D93309F085
:100A6000E9CE8FEF97EEE3E081509040E040E1F770
:100A7000DFCE8C2F8F71A1CFDF91CF911F910F917E
:100A8000FF90EF90DF90CF90BF9008950F931F934A
:100A9000CF93DF93EC01688179818A810E9492076C
:100AA0008C010E94F1060E94F305B801CE01DF918E
:100AB000CF911F910F910C943D03CF93DF93EC01E5
:100AC0008B819C81892B29F08881998189238F3F93
:100AD00059F4DF91CF910895CE010E944605CE01D1
:100AE000DF91CF910C94CB01CE010E94EE018111D8
:100AF000F3CF0E94920A882361F38A81882349F305
:100B000082E0DF91CF910C944E0B90E080E00E9448
:100B1000721590E080E00E9488150E94DA0A0E9417
:100B2000DD0A0E94FD0A0E9428130C9401120E9403
:100B3000820A0C9485050E94CA0A0C949705E92F35
:100B4000E295EF70E250EE3070F4F0E0EC5EF14EC2
:100B50000C949D1D803F19F020F4883E20F481E024
:100B60000895843FE1F380E00895883EC0F3813F1B
:100B7000D1F7F5CF93FB882780F90895FC01808198
:100B800091810E9488070C949F05CF93DF9300D03A
:100B900000D00F92CDB7DEB70F900F900F900F904F
:100BA0000F90DF91CF910895CF93DF9300D000D0C5
:100BB00000D0CDB7DEB726960FB6F894DEBF0FBED5
:100BC000CDBFDF91CF91089508950C94E4050E9464
:100BD000E5056093BE017093BF018093C0019093BF
:100BE000C1010C94850508950C94E7050F931F939C
:100BF0000091BE011091BF012091C0013091C1014F
:100C0000602B712B822B932B1F910F910C94E70576
:100C10000F931F930091BE011091BF012091C0015D
:100C20003091C10160237123822393231F910F917F
:100C30000C94E7050F931F930091BE011091BF0123
:100C40002091C0013091C10160277127822793272D
:100C50001F910F910C94E7050C94E4050C942C065D
:100C60000E942E066093BA017093BB018093BC0171
:100C70009093BD010C94850560E070E0CB010C946D
:100C800030060F931F9341E050E060E070E08A016E
:100C90009B0104C0000F111F221F331F8A95D2F73A
:100CA000C901B8011F910F910C9430060F931F9347
:100CB00041E050E060E070E004C0440F551F661F43
:100CC000771F8A95D2F78091BA019091BB01A091CC
:100CD000BC01B091BD018A019B01082B192B2A2B65
:100CE0003B2BC901B8011F910F910C9430060F9353
:100CF0001F9341E050E060E070E004C0440F551FD6
:100D0000661F771F8A95D2F7CB01BA01609570955F
:100D1000809590950091BA011091BB012091BC0182
:100D20003091BD0160237123822393231F910F9182
:100D30000C9430060F931F9341E050E060E070E0A8
:100D400004C0440F551F661F771F8A95D2F7809104
:100D5000BA019091BB01A091BC01B091BD018A0183
:100D60009B01082719272A273B27C901B8011F9192
:100D70000F910C9430060F931F930091BA011091BC
:100D8000BB012091BC013091BD01602B712B822BE6
:100D9000932B1F910F910C9430060F931F9300918A
:100DA000BA011091BB012091BC013091BD016023BB
:100DB0007123822393231F910F910C9430060F937C
:100DC0001F930091BA011091BB012091BC01309199
:100DD000BD0160277127822793271F910F910C94E3
:100DE000300608952EE0929F800D1124982F977061
:100DF00041E001C0440F9A95EAF78695869586955D
:100E000095E0899FF0011124E357FE4F90E080E0C8
:100E100070E05191DF0111979B01082E02C03695B9
:100E200027950A94E2F72170219525272423252769
:100E30002C9301968530910561F708952EE0929FDD
:100E4000800D1124982F977086958695869525E0BC
:100E5000829FF0011124E357FE4F50E040E080E014
:100E6000219130E0092E02C0369527950A94E2F7C9
:100E700021703327042E01C0220F0A94EAF7822B37
:100E80004F5F5F4F4530510559F70895BF92CF929C
:100E9000DF92EF92FF920F931F93CF93DF938C011A
:100EA000C090BA01D090BB01E090BC01F090BD01B0
:100EB0008091BE019091BF01A091C001B091C1018C
:100EC000C82AD92AEA2AFB2ACFE1D0E0BC2ED701D2
:100ED000C6010C2E04C0B695A795979587950A94E0
:100EE000D2F780FD0EC0219788F7B12C8B2DDF91B2
:100EF000CF911F910F91FF90EF90DF90CF90BF9017
:100F00000895B8018C2F0E94150E019761F3EECF62
:100F1000CF93DF93EC010E944607BE01DF91CF9192
:100F20000C94150E1F93CF93DF93EB0190918C01DE
:100F3000992331F0CB01DF91CF911F910C94880759
:100F4000882379F0CB010E944607182F682FCE0125
:100F50000E94F206BE01812FDF91CF911F910C9468
:100F6000150ECB010E941E07182FF4CF1F93CF93AD
:100F7000DF93C091C20116E08091C3018C1304C0BD
:100F8000DF91CF911F910895D0E01C9FF0011D9F2C
:100F9000F00D1124EC53FE4F408151816281738129
:100FA000848195810E94D4052196C770E5CF409138
:100FB000F4015091F5016091F6017091F701809173
:100FC000F8019091F9010C94D4051F93CF93DF930E
:100FD0008091F901807FA9F48091F601882389F03E
:100FE0008091C201C091C3016091F4017091F5013B
:100FF000A091F701B091F801D62FD72316E0C813BE
:1010000004C0DF91CF911F91089590E0109711F0E7
:10101000DF3F19F401968770F2CF189F9001199F56
:10102000300D1124F901EC53FE4F41814713F2CFEB
:1010300040814613EFCF42814111ECCF438154816F
:101040004A1B5B0B483C510528F78091F9018F70D2
:1010500080618093F901F901E753FE4F80818F7021
:101060008061808384EF91E00E945D05DF91CF91E4
:101070001F910C94B607AF92BF92CF92DF92EF927E
:10108000FF920F931F93CF93DF93CDB7DEB7619796
:101090000FB6F894DEBF0FBECDBF8C0185E0F8011E
:1010A000DE011D9601900D928A95E1F7F801E2802C
:1010B00084EFC82E81E0D82E6091F7017091F8017D
:1010C0006115710509F45AC19091F4012091F5015F
:1010D000892F82238F3F09F451C140815181A38020
:1010E000B480F090F601F501E61BF70BFF2009F440
:1010F000F6C08091F901382F307FE83CF10508F007
:10110000AFC0311179C0FE2C251323C0941321C028
:10111000E1101FC08F7080618093F9010E94D70792
:10112000C6010E945D058091F901F80185838F2D2C
:1011300061960FB6F894DEBF0FBECDBFDF91CF91A1
:101140001F910F91FF90EF90DF90CF90BF90AF90E5
:101150000895AB2829F0842F85238F3F09F027C1FC
:1011600080E0F82FF170DF2E80FF3CC08091C2013B
:101170002091C30136E0821315C04D875E878D85AF
:101180009E850E948807292F22952F702230F0F02B
:10119000243018F59F70F1F0F8019581907FD1F41B
:1011A000D12C1EC090E0389FF001399FF00D112422
:1011B000EC53FE4F6181651306C06081641303C068
:1011C0006281E6120FC001968770D5CF9F7011F033
:1011D000882331F3805E883018F3C8010E945D05D2
:1011E000FD2CA5CFEE2009F4A2CF8091F9018160FA
:1011F0008093F901F12C9BCF251306C0941304C0F2
:10120000F801EE2009F487C0C8010E94BE058823BA
:1012100019F1EE2009F18091F901803270F02091EE
:10122000F4013091F50138872F831986BB86AA8691
:101230008C87CE0107960E945D0586E0F801A4EF39
:10124000B1E001900D928A95E1F70E94E5070E94B6
:10125000D707FF24F3946BCFC8010E945D05F9CF37
:10126000311113C07A2DB98AA88A6E2D89890E94FE
:10127000C50584EF91E00E945D0586E0F6011192BC
:101280008A95E9F70E94D707B5CF25130FC09413AD
:101290000DC0E1100BC0F8018583C8010E945D05F7
:1012A00086E0F60111928A95E9F741CFC8010E94C4
:1012B000BE05882389F2EE2079F28091F90180320F
:1012C00008F4BBCF2091F4013091F5013A832983D2
:1012D0001B82BD82AC828E83CE010196ACCFE83CEE
:1012E000F10508F03EC0FE2CEE2009F4B5CF251321
:1012F0002AC0941328C08091F90180FD1BC0982F4B
:10130000907FC1F0F8018583903F31F0982F907F56
:10131000905F8F70892B8583C8010E945D0586E0F0
:10132000F801A4EFB1E001900D928A95E1F70E94D7
:10133000D707FDCE86E0F801A4EFB1E001900D9251
:101340008A95E1F7F4CEC8010E94BE05811175CFE0
:101350008091F90181608093F901C8010E945D05C7
:10136000E6CE7A2DB98AA88A6E2D89890E94C50594
:1013700086E0F60111928A95E9F7D9CFEE2009F4BB
:101380006BCFC8010E94BE05F82E882309F464CFF4
:1013900086E0F801A4EFB1E001900D928A95E1F7A3
:1013A00084EF91E00E948E020E94E507C0CF81E0A9
:1013B0008E25D7CE1F93CF93DF93CDB7DEB72C9773
:1013C0000FB6F894DEBF0FBECDBF4F835887698735
:1013D0007A878B879C87CE0107960E943B088823DB
:1013E00069F08A859B85892B39F04F815885842F38
:1013F00085238F3F09F071C016E05FC086E0FE01D3
:101400003796DE01119601900D928A95E1F78A8553
:101410009B85892B89F38F81988589238F3F61F381
:101420002091C30130E0C90101968770992740914E
:10143000C2014817190671F40E949B051092C3015E
:101440001092C20186E0E4EFF1E0DF011D928A957F
:10145000E9F7D2CF96E0929FD001939FB00D11246F
:10146000AC53BE4FFE01319601900D929A95E1F773
:101470008093C3010E94B607BFCF819FC001112492
:101480008C539E4F0E943B088823E9F0E091C201F3
:101490001E9FF0011124EC53FE4F40815181628167
:1014A0007381848195810E94D4058091C20190E06E
:1014B0000196877099278093C2018091C201909113
:1014C000C3018913DACF2C960FB6F894DEBF0FBE96
:1014D000CDBFDF91CF911F91089569857A858B8566
:1014E0009C850E94D40588CF682F8091000190913F
:1014F00001010C94E615682F809100019091010183
:101500000C94E81580910001909101010C94EA156A
:101510008091FA0185958595859508958091FA01C8
:10152000877008959091FA01977081E009F480E046
:1015300008959091440292FB222720F9281751F038
:1015400080FB92F99093440280914302909144026F
:101550000C94910B08958091440282FB882780F9B6
:1015600091E089270C94990A81E00C94990A80E013
:101570000C94990A80910602089590910602892B95
:101580008093060208958095909106029823909387
:101590000602089510920602089590910502892B83
:1015A0008093050208958095909105029823909369
:1015B00005020895109205020895109204020895FC
:1015C0008091FB01089508950C94E30A90914402E0
:1015D00092FD08C09091FB01981721F08093FB01C8
:1015E0000C94E40A08958091FB01882329F010925D
:1015F000FB0180E00C94E40A0895E0910001F09171
:101600000101809106028083E0910001F0910101C7
:10161000808190910502892B8083E0910001F091F7
:101620000101808190910402892B80839091FB01BC
:10163000992381F0E0910001F09101018081892BD3
:10164000808380910001909101010E949E1581117B
:101650000E94F30A80910001909101010C945915A8
:1016600008950C94300B9091440292FD10C098E0C4
:10167000899F90011124622B6093FA010E94560603
:101680008091FA018595859585950C94310B0C9484
:1016900056061092FA0180E00C94310B9091FA01F9
:1016A000809589238093FA01282F277039F4282FF9
:1016B000082E000C330B9217130621F4909144026C
:1016C00092FF07C08595859585950E9477060C94B5
:1016D000490B08956FEF7FEF90E080E00C94F01DD0
:1016E00090E080E00E94CC1D21E0893E9E4F09F0F1
:1016F00020E0822F089582E090E00C94C41D83E0E6
:1017000090E00C94C41DCF9384E090E00E94C41D2F
:10171000C82F82E290E00E94C41D982F8C2FCF9199
:101720000895CF93C92F682F84E090E00E94D21DC6
:101730006C2F82E290E0CF910C94D21DAB01BC01E2
:101740008FE090E00C94E41DAB01BC0183E190E0DC
:101750000C94E41D60E070E0CB010C94A40B60E0FD
:1017600070E0CB010E949E0B0C94AA0B69EE7EEFF9
:1017700090E080E00E94F01D60E082E090E00E9436
:10178000D21D60E083E090E00E94D21D1092BE0165
:101790001092BF011092C0011092C10160E084E07C
:1017A00090E00E94D21D60E082E290E00E94D21D93
:1017B00060E085E090E00E94D21D60E086E090E06D
:1017C0000E94D21D6FEF87E090E00E94D21D40E0A2
:1017D00050E0BA0188E090E00E94E41D60E08DE0F6
:1017E00090E00E94D21D40E050E0BA0188E190E014
:1017F0000E94E41D60E087E190E00E94D21D40E07D
:1018000050E0BA018CE190E00E94E41D70E060E0DD
:1018100080E290E00E94F01D40E050E0BA0188E1D3
:1018200090E00E94E41D0C94AF0B0C94B60B682F53
:101830008EE090E00C94D21D0E94811660931602F7
:10184000709317028093180290931902609312020A
:10185000709313028093140290931502089585B734
:10186000806885BF85B7806885BF0895089508950D
:101870000C94360C08950C943A0C0E942F0C83EFB4
:101880009EE00E94E4160E94370C0C94380C81E014
:1018900008950C94470C089508950E944B0C0C94E5
:1018A0004C0C0E946C160E94F30F0C943B0C8F9210
:1018B0009F92AF92BF92CF92DF92EF92FF920F93DF
:1018C0001F93CF93DF93CDB7DEB72A970FB6F89467
:1018D000DEBF0FBECDBF0E941B1081110E941C0CE9
:1018E00058E0852E52E0952E10E000E0A02E802FCB
:1018F0000E94370F6C01F401E190F1904F01E8165E
:10190000F90609F45CC080911A0281FD0E94400F23
:10191000C7018C259D25B12CEE24E394F12C9C016C
:101920002E213F21232B09F444C00E94490C882317
:10193000A9F0BE82AF82CE20DF2081E0CD2809F45D
:1019400080E088870E9475168160782F9A87898742
:101950004E815F8168858A850E945002000F111FA9
:10196000F801E85FFD4F80819181E826F926F18238
:10197000E0820E941C120E944D1590910702891767
:10198000A9F10E944D15809307022A960FB6F8948C
:10199000DEBF0FBECDBFDF91CF911F910F91FF90A2
:1019A000EF90DF90CF90BF90AF909F908F900C946E
:1019B0004802B394EE0CFF1CFEE0BF12B0CF0F5FE5
:1019C0001F4F0530110509F091CF8FEF89838A836E
:1019D0001B820E9475168160782F9D838C834981BC
:1019E0005A816B818D810E945002C3CF2A960FB617
:1019F000F894DEBF0FBECDBFDF91CF911F910F9145
:101A0000FF90EF90DF90CF90BF90AF909F908F901E
:101A10000895CF93DF930E94190EEC01811521E503
:101A2000920708F042C0811530E5930708F09DC089
:101A3000883E910530F5803E910508F092C0883AC5
:101A4000910588F4853A910508F084C081309105AC
:101A500009F487C0009709F484C0049708F081C096
:101A6000D0E0C0E07EC08F3B9105D0F7C85AD0E0EF
:101A7000CC0FDD1FCA5BDE4F0990D881C02DD46426
:101A800070C08115904250F4C11581E0D80708F06C
:101A900068C0CD3ED10520F3D06563C0C11590E488
:101AA000D907F0F2DF70D06A5CC0811525E5920796
:101AB00000F5811534E5930708F08BC0811543E5E7
:101AC000940708F073C0C11582E5D80708F469C00F
:101AD000CE018370992721E030E002C0220F331F2E
:101AE0008A95E2F7C695C69580E2C89FE001112469
:101AF00054C0C11599E5D907A8F4C11528E5D20746
:101B000008F06CC0C11536E5D30708F0A9CF8C2FBB
:101B10000E94B00EC82FD0E0DC2FCC27CC27DF717D
:101B2000D0621FC0C1154AE5D40708F45CC0CE01DD
:101B300090568115904208F093CF8D2F8F710E949F
:101B4000B00E90E0982F882788279F719C012C2B3E
:101B5000E901E6CFC55AD0E0CC58DE4FC881D0E0CD
:101B6000D064CE01DF91CF910895E4E096958795FA
:101B7000EA95E1F783702C2F26952695237040E295
:101B8000249F90011124382B8C2F8370C1E0D0E06A
:101B900002C0CC0FDD1F8A95E2F7C22BD32BDC6885
:101BA000E0CFDC2FCC27C16FD06ADBCF83709927C1
:101BB00021E030E002C0220F331F8A95E2F7C6957C
:101BC000C69590E2C99FE0011124C22BD32BDA689D
:101BD000C8CFD82FCC27C46FD06AC3CFDC2FCC2777
:101BE000C06FD06ABECF8C2F8F700E94B00E34E0D1
:101BF000D695C7953A95E1F7CF709C2FEC01D06947
:101C0000B0CF972F70E02EE0929F600D711D1124D0
:101C1000FB0196E4899FE00DF11D1124EE0FFF1FDB
:101C2000E455FF4F8591949108950E94010E0C9404
:101C3000090D82389105B1F1B0F48133910509F4B1
:101C400075C048F48932910509F469C08A3291055A
:101C500009F473C008958533910509F459C0893397
:101C6000910501F10895833E9105A9F138F4803E74
:101C70009105F9F0823E910549F10895863E91055E
:101C8000A9F1873E9105C9F1843E910519F520918E
:101C9000440221FF1FC08091430284FD14C087EEDF
:101CA00090E00895209143022370A1F080EE90E02F
:101CB00008952091430220FD47C03091440230FF37
:101CC00009C024FF44C090E080E004C0209143029A
:101CD00022FDF7CF08952091430222FD3BC03091B1
:101CE000440230FDE3CF24FFF5CFEDCF2091430236
:101CF00023FFF0CF24FDE7CFD2CF2091430223FD75
:101D00002CC03091440231FFEECF84EE90E0089574
:101D10002091430225FFDECF89E290E008952091D3
:101D2000430225FFD7CF85E390E008952091430239
:101D300026FFD0CF8AE290E008952091430226FF4B
:101D4000C9CF81E390E0089589E390E0089583EEA0
:101D500090E0089582EE90E0089586EE90E0089578
:101D60009091430292FF06C0282F28712830F9F481
:101D7000877F846093FF06C0282F28712831F1F4F3
:101D8000877E84612091440220FF06C0382F38717D
:101D90003830D9F4877F816021FF06C0282F287151
:101DA0002831D1F4877E816194FD877E0895282FA4
:101DB00024712430F9F68B7F8860DCCF282F2471C2
:101DC000243101F78B7E8861DDCF382F31713130BE
:101DD00019F78E7F8860E0CF282F2171213121F7FC
:101DE0008E7E8861E1CF80E008950C946A0B0E949A
:101DF0001B108FE39CE90197F1F700C000000E94DF
:101E00001B1080E00E94370F80FF04C00E94F50E77
:101E10000C94C01608950C94F70E0E94700B81115B
:101E200002C00E94150C0E947B0B80931A020E9434
:101E3000830B90934402809343020E940B0F0E94F5
:101E40007F0B682F70E090E080E00E94F4056091C5
:101E5000BA017091BB018091BC019091BD010C94BD
:101E60002E0608950C94310F08950C94340FE82F2A
:101E7000F0E0EE0FFF1FE15BFD4F8081918108953F
:101E8000089580EA8A95F1F7089500C008950C94AA
:101E9000410FF894E82FE295EF70F0E031A1282F80
:101EA0002F7081E090E001C0880F2A95EAF7982F03
:101EB0009095932391A392A1892B82A3789408955E
:101EC000CF93DF93C5E8D1E089918F3F11F00E9455
:101ED000490F81E0CA38D807B9F7C7E7D1E089913F
:101EE0008F3F11F00E94490F81E0C538D807B9F73C
:101EF000DF91CF910895AF92BF92CF92DF92EF9290
:101F0000FF920F931F93CF93DF938C01B62EC62FB2
:101F1000D0E0CE018B579E4F7C01FC0120812F3FEA
:101F200009F453C0F894E22FE295EF70F0E031A18C
:101F30002F7081E090E001C0880F2A95EAF7932F77
:101F4000982B91A392A18095892382A378940E94D3
:101F5000450FE7E7F1E030E020E0D12CC12C41E073
:101F600050E081918F3FE1F1A82FA295AF70B0E0D2
:101F700090966C9170E08F7002C0759567958A9508
:101F8000E2F760FD2DC0CA01022E02C0880F991F22
:101F90000A94E2F7C82AD92A2F5F3F4F2E30310525
:101FA00001F7F70180818F3F11F00E94490F61E036
:101FB000C114D10409F460E08B2D0E94470FCC0FAF
:101FC000DD1FC00FD11FD982C882DF91CF911F9131
:101FD0000F91FF90EF90DF90CF90BF90AF9008955A
:101FE00090E080E0D7CF0E94600FA5E4B2E01196A8
:101FF0001C921E92EFE4F2E01182108213961C9262
:102000001E9212971382128215961C921E9214979A
:102010001582148217961C921E92169717821682AA
:1020200019961C921E9218971186108685E00E94C0
:1020300066100C94D601FF920F931F93CF93DF93FA
:10204000CDB7DEB72A970FB6F894DEBF0FBECDBF6F
:102050008E010F5F1F4F8AE0F80111928A95E9F710
:10206000F12C6F2DC8010E947B0FF394F5E0FF1255
:10207000F8CF4AE050E0B80185E492E00E94B71D35
:10208000FF24F394009709F4F12C892B41F08AE0A6
:10209000F801A5E4B2E001900D928A95E1F72F2DA9
:1020A00045E06FE472E085E492E00E9467100E94D0
:1020B000DC018F2D2A960FB6F894DEBF0FBECDBF80
:1020C000DF91CF911F910F91FF9008950895FF9296
:1020D0000F931F93CF93DF93F82E092F162FD72F2F
:1020E000C42F222349F081E080931D020E947516BF
:1020F00090931C0280931B0280911D028823A1F003
:1021000080911B0290911C020E948D16059760F031
:10211000EF2DF02FA12FBD2F90E080E0D0E08C17A5
:102120009D0744F010921D02DF91CF911F910F91F6
:10213000FF900895219131912D933D930196EFCF1A
:102140000E94F1150E9442180E945B180E946D18AF
:102150000E944D0CFBCF8091240280FF12C0609141
:10216000070185E0689FB001112475956795759505
:10217000679560387105A8F561157105A1F1862F85
:10218000089581FF09C06091070185E0689FB00153
:10219000112475956795EDCF6091070182FD0AC006
:1021A000809123028823D1F090910601609107016C
:1021B000891728F085E0689FB0011124DACF869F47
:1021C000B001112485E0869F9001879F300D112476
:1021D000692F70E0C9010E94891DCBCF65E070E0D6
:1021E000CECF8FE7089581E008958091240280FF8B
:1021F0000CC06091030170E07595679575956795C2
:102200006115710549F1862F089581FF06C060911F
:10221000030170E075956795F3CF6091030182FD2E
:102220000BC0909122029923A1F06091020180914C
:102230000301961738F0682F70E06038710500F3DD
:102240008FE70895899FC001112470E00E94891DC5
:10225000F4CF61E070E0D7CF81E008958D3E31F496
:102260000E94AB1081958093280208958E3E19F448
:102270000E94AB10F8CF8F3E31F40E94AB108195D5
:10228000809327020895803F19F40E94AB10F8CF85
:10229000893F29F40E94F5108093290208958A3F0E
:1022A00021F40E94F5108195F7CF8B3F31F40E9405
:1022B000F510819580932A0208958C3F19F40E94AD
:1022C000F510F8CF9FE0980F983070F4815F990B6C
:1022D00021E030E001C0220F8A95EAF780912602C2
:1022E000822B8093260208958D3F31F48091240241
:1022F00081608093240208958E3F21F4809124020E
:102300008260F7CF8F3FB9F7809124028460F1CFCC
:10231000409127028D3E59F48091280287FF0DC01D
:102320001092280241110BC01092230208C08E3E69
:1023300081F48091280218169CF3442381F0809147
:10234000290290912A02892B09F05AC01092220288
:1023500008958F3E49F447FFF0CF109227028091F5
:1023600028028111ECCFE0CF803F19F41416ACF3B2
:10237000E4CF90912902893F29F41916F4F61092BE
:102380002902DBCF8A3F19F497FFD7CFF8CF90917E
:102390002A028B3F29F497FFD0CF10922A02CDCF8B
:1023A0008C3F19F41916CCF3C8CF9FE0980F9830E2
:1023B00090F4815F990B21E030E0B90102C0660F13
:1023C000771F8A95E2F7CB018095909126028923A9
:1023D00080932602B2CF8D3F31F4809124028E7F0C
:1023E00080932402AACF8E3F21F4809124028D7F16
:1023F000F7CF8F3F09F0A1CF809124028B7FF0CFE0
:1024000008950E9475169C019091270280912802E0
:10241000982B21F0309321022093200290912902E1
:1024200080912A02982B21F030931F0220931E02E4
:1024300085E292E00C946415EF92FF920F931F9344
:10244000CF93DF9300D000D000D0CDB7DEB786E0C9
:10245000E5E2F2E0DE01119601900D928A95E1F736
:10246000E0902702F09028020091290210912A02A0
:1024700010922702109228021092290210922A022A
:102480008E2D8F2991F080912002909121020E943F
:102490008D16AC0190912302992309F43FC08091DD
:1024A00008018417150608F447C0802F812B91F08E
:1024B00080911E0290911F020E948D16AC01909196
:1024C0002202992309F477C080910401841715062C
:1024D00008F47FC08091270290912802892B909167
:1024E0002902892B90912A02892B11F00E94011256
:1024F00086E0FE013196A5E2B2E001900D928A9548
:10250000E1F726960FB6F894DEBF0FBECDBFDF9180
:10251000CF911F910F91FF90EF90089520910901A5
:102520008AE0289F900111242417350708F0BDCFB9
:102530009F5F9093230202C09F3FD1F7EE2059F096
:102540000E94AB109FEF1E140CF491E0899F802D28
:10255000112480932702FF2059F00E94AB109FEFB7
:102560001F140CF491E0899F802D11248093280280
:1025700030912702332309F498CF20912802222397
:1025800009F493CF45EB3403C0011124992359F08A
:102590009093270245EB240390011124332339F053
:1025A0003093280282CF81E080932702F3CF81E02D
:1025B000809328027ACF209105018AE0289F90011C
:1025C00011242417350708F085CF9F5F90932202CE
:1025D00002C09F3FD1F7002359F00E94F5109FEFF2
:1025E00010160CF491E0899F802D1124809329020C
:1025F000112359F00E94F5109FEF11160CF491E091
:10260000899F802D112480932A023091290233233F
:1026100009F460CF20912A02222309F45BCF45EB15
:102620003403C0011124992359F09093290245EBFA
:10263000240390011124332339F030932A024ACF26
:1026400081E080932902F3CF81E080932A0242CF78
:1026500086E0E5E2F2E0DF011D928A95E9F710924B
:102660002302109222021092240208950F931F93C6
:10267000CF93DF93C42FD22FFC0182818823C9F02E
:1026800040932D020E94751690932C0280932B028A
:1026900080E28C0F883008F050C0C77081E001C024
:1026A000880FCA95EAF7DF91CF911F910F910C9493
:1026B0002F0310912D02141335C080912B0290919D
:1026C0002C020E948D16883C910560F5C0E2CD0F6A
:1026D0001D17B9F080E2810F883040F4177081E057
:1026E00001C0880F1A95EAF70E943603C83048F4F3
:1026F00081E09D2F977001C0880F9A95EAF70E949C
:102700002F03802F0E942703C830B8F4D77081E0D0
:1027100001C0880FDA95EAF7DF91CF911F910F91F1
:102720000C94360380E28C0F883038F4C77081E057
:1027300001C0880FCA95EAF7EFCFDF91CF911F91C3
:102740000F9108950F939C01CB01243F4CE5340772
:1027500059F1A8F4293DFCE53F0701F12A3D4CE57C
:102760003407D1F1283D3C4591F406E221EE41EEDB
:1027700068ED7CE50E94361380E00F910895263FB6
:10278000FCE53F07E9F0B0F0273F3C45F9F0FC01DC
:102790008281882339F110922D02EFCF07E225EED6
:1027A00045EE69ED7CE5E6CF06E221EE40EE64EF12
:1027B0007CE5E0CF07E225EE44EE65EF7CE5DACF7D
:1027C00006E221EE42EE66EF7CE5D4CF07E225EE8D
:1027D00046EE67EF7CE5CECF08E221E045EE6AEDFC
:1027E0007CE5C8CF81E0C9CFCF93DF93EC01FB013B
:1027F0008281882309F420C1C430FDE5DF07C8F5D4
:10280000CB3F9CE5D90730F49E0122503C45243152
:10281000310598F50E94830B909344028093430204
:10282000C031FCE5DF0709F4E0C008F061C0C83042
:102830009CE5D90709F4CBC088F5C430FCE5DF0777
:1028400009F4B3C0E8F4C2309CE5D90709F4A7C085
:10285000809143028260C330DC4509F4A3C08091BB
:102860004302909144020E94910B0E949B0580E0DC
:1028700004C0C236EDE5DE0769F2DF91CF9108951D
:10288000809143028061C630FCE5DF0709F48AC00D
:1028900008F48FC080914302806284C0809143021B
:1028A0008D7FCC309CE5D90709F47CC070F4809111
:1028B00043028C60CA30FCE5DF0709F473C008F4FA
:1028C0008AC0809143028E7F6DC080914302877FD2
:1028D000CE309CE5D90709F465C0809143028B7F17
:1028E000CF30DC4508F45EC0809143028F7E5AC031
:1028F000CD3FFCE5DF0709F474C040F5C4319CE529
:10290000D90709F48AC058F4C231FCE5DF0709F49D
:1029100074C008F46EC080914302837F43C0CB3FF4
:102920009CE5D90709F449C008F04DC0C531DC4524
:1029300009F095CF8091430282FB992790F921E01D
:10294000922790FB82F990FB83F92CC0C1308DE572
:10295000D80709F458C088F4809144028360CF3FBF
:10296000ECE5DE0769F1809144028D7FC115DD45FC
:1029700038F1809144028C7F23C0C3308DE5D807A5
:1029800009F458C008F452C0C236DD4509F067CFDB
:1029900090914302892F8F7E94FF806103C08091C4
:1029A00043028160809343025ACF80914302846046
:1029B000F9CF809143028860F5CF80914402816015
:1029C000809344024CCF809144028260F9CF809181
:1029D00043028064E7CF0E949B0580914302806898
:1029E000E1CF809144028E7FEBCF809143028F7DB7
:1029F000D9CF809143028F7BD5CF0E949B058091D8
:102A000043028F77CFCF80914402982F9095917099
:102A10008E7F892B90FB81F9D3CF0E949B059091EB
:102A20004302892F97FB87F98058BCCF81E00E9431
:102A3000170C15CF80E0FBCF81E01FCFCF93DF9342
:102A4000EB0186319C4511F50E94BA0A9A819923BF
:102A500099F08A7A91E009F490E090932E02811126
:102A600009C089E20E94740A0E94FD0A80E0DF9199
:102A7000CF91089585E3F6CF80912E02811104C095
:102A800089E20E947B0AF0CF85E3FBCF81E0EFCFA4
:102A900090933402809333020895E0913302F091D1
:102AA0003402309721F00190F081E02D099480E00C
:102AB0000895E0913302F0913402309721F00280C2
:102AC000F381E02D09940895E0913302F0913402EE
:102AD000309739F022E0DC012C930480F581E02D61
:102AE0000994089520913102309132022817390754
:102AF00071F09093320280933102E0913302F091B1
:102B00003402309721F00680F781E02D0994089572
:102B100020912F02309130022817390771F09093DD
:102B2000300280932F02E0913302F091340230970B
:102B300021F00084F185E02D099408959C012E5F19
:102B40003F4FAC01485F5F4F80E02417350709F421
:102B50000895F90191919F019923B9F38F5FF5CF02
:102B6000662349F0FC01329608962191261729F038
:102B7000E817F907D1F780E0089581E008959C01F6
:102B8000FC0132969FEF80E04191461751F09F3F44
:102B900019F4411101C0982F8F5F8630A9F79F3F2C
:102BA00009F40895290F311D97FD3A95F9016283C3
:102BB0000895FC01329608962191261303C0DF0187
:102BC00011971C92E817F907B9F708950C94BF15EF
:102BD0000C94D915029626E0FC0111922A95E9F78A
:102BE00008950895089508950C94F3158091610255
:102BF000843049F10E94F41580E00E94480210924E
:102C0000350288E190E020E40FB6F894A89580930F
:102C100060000FBE2093600083B7817F846083BF14
:102C200083B7816083BF7894889583B78E7F83BF95
:102C30000FB6F894A8958091600088618093600039
:102C4000109260000FBE08950895CF930E94F21570
:102C50000E941B100E942416C0E08C2F0E94370F88
:102C6000892B31F4CF5FC530C1F780E0CF91089553
:102C700081E0FCCF08950C943A160E949B050E94B7
:102C80004D150E9448020C943B161F921FB61F92CE
:102C900011248F939F93AF93BF938091350281113D
:102CA00013C08091590290915A02A0915B02B09199
:102CB0005C024196A11DB11D8093590290935A0266
:102CC000A0935B02B0935C02BF91AF919F918F91F3
:102CD0001F901FBE1F90189582E084BD93E095BDA4
:102CE0009AEF97BD80936E0008952FB7F894809166
:102CF000590290915A02A0915B02B0915C022FBFE1
:102D000008952FB7F8946091590270915A028091FA
:102D10005B0290915C022FBF08959C014FB7F8941D
:102D20008091590290915A02A0915B02B0915C028D
:102D30004FBF821B930B089578941F921FB61F926A
:102D400011248F939F93AF93BF93809159029091D9
:102D50005A02A0915B02B0915C020196A11DB11DC7
:102D60008093590290935A02A0935B02B0935C0245
:102D7000BF91AF919F918F911F901FBE1F9018958B
:102D800081E08093E00080E28093D8001092C90037
:102D90008FE19EE40197F1F700C0000087E090EB1F
:102DA000DC0180936A0290936B02A0936C02B09353
:102DB0006D0288E19CE00FB6F894A89580936000BE
:102DC0000FBE90936000FFCF90938B0180938A0198
:102DD000089580914102089590916102943031F5F7
:102DE00080933602709338026093370282E08093BA
:102DF000E9008FEF9091E800815095FD06C095EDB8
:102E00009A95F1F700008111F5CF8091E80085FFD8
:102E10000DC050E040E063E070E086E392E00E9485
:102E2000F8188091E8008E778093E8000895BC013F
:102E300084E00C94EC16BC0183E00C94EC169C012D
:102E400082E08093E9009FEF8091E800915085FD3A
:102E500006C085ED8A95F1F700009111F5CF8091BC
:102E6000E80085FF0CC050E040E066E070E0C9017A
:102E70000E94F8188091E8008E778093E80008950A
:102E8000CF93DF93EC0181E08093E9008FEF909185
:102E9000E800815095FD06C095ED9A95F1F7000088
:102EA0008111F5CF8091E80085FF14C050E040E02B
:102EB00068E070E0CE010E94F8188091E8008E77FB
:102EC0008093E80088E0FE01A9E3B2E001900D9252
:102ED0008A95E1F7DF91CF91089580916002811189
:102EE00009C00E94881A0E94E51A8091E20084605D
:102EF0008093E20008951092600208950895089565
:102F0000089542E061EC81E00E94041A42E261EC23
:102F100082E00C94041A80916302833009F45FC04C
:102F200030F48130C1F1823009F49BC008958A30B9
:102F300009F487C08B3009F46DC0893009F04EC0A8
:102F400080916202813209F049C0809166029091BD
:102F50006702029708F042C08091E800877F809363
:102F6000E8008091E80082FF35C09091F3008091E5
:102F7000F200029729F48091F1008B7F813021F4D7
:102F80008091F100809341028091E8008B778093DB
:102F9000E8000C94381A80916202813AF9F4809129
:102FA000E800877F8093E800809166029091670235
:102FB000892B61F468E089E392E070E00E94471990
:102FC0008091E8008B778093E800089560E090E0BE
:102FD00080E0F3CF809161028111C3CF0895809189
:102FE0006202813AD9F78091660290916702892B3B
:102FF000A9F78091E800877F8093E8008091E8003E
:1030000080FFFCCF809114018093F1008091E80053
:103010008E77BDCF80916202813201F78091660286
:1030200090916702892BD1F68091E800877F809389
:10303000E8000E94381A80916402809314010C9475
:103040009B0580916202813249F68091E800877F7A
:103050008093E8000E94381A8091650280934202B2
:10306000089580916202813A09F0B8CF8091E8001A
:10307000877F8093E8008091E80080FFFCCF8091FB
:103080004202C2CF84B7877F84BF0FB6F894A89559
:1030900080916000886180936000109260000FBE94
:1030A00080E890E00FB6F8948093610090936100FF
:1030B0000FBE0C943D0C0E94881A0E94E51AE2EEA5
:1030C000F0E080818460808378940E946E1D0E946D
:1030D000510C8AE091E00C94481580916102853092
:1030E00031F480916102853021F00E943D160C94EC
:1030F000570C0E94F61580915F02882391F30E947D
:103100002516882371F30E94E2180E949B05E9CFDF
:103110000C948A18292F33272330310519F168F4CC
:103120002130310509F444C02230310509F445C08D
:1031300090E080E030E020E025C02132310549F107
:1031400022323105A9F780E490E026E332E06115F0
:103150007105C1F08BE790E02BEB31E06130710538
:1031600089F0E6CF99278130910581F0009729F009
:103170000297F1F6E8E3F1E002C0EAE6F1E08491BB
:1031800090E09F01FA01318320830895EAE4F1E0A1
:10319000F6CF89E090E020E831E06115710591F308
:1031A00089E090E029E931E06130710559F3C0CF41
:1031B00082E190E029EA31E0E5CF8BE390E02EE672
:1031C00031E0E0CF80E189BD82E189BD09B400FE34
:1031D000FDCF8091D8008F7D8093D8008091E00052
:1031E00082608093E0008091E00081FDFCCF089533
:1031F000AF92BF92CF92DF92FF920F931F93CF9324
:10320000DF936C01EB018A010E94571AF82E81119D
:1032100023C00115110539F0F80180819181C81B87
:10322000D90BC80ED91EB12CA12C2097A9F08091E2
:10323000E80085FD22C08091E8008E778093E80049
:1032400001151105A1F0F80180819181A80EB91E28
:10325000B182A08285E0F82E8F2DDF91CF911F9152
:103260000F91FF90DF90CF90BF90AF9008950E9494
:10327000571A8823D1F2F82EEFCFF60181916F0112
:103280008093F1002197FFEFAF1ABF0ACECFFC0168
:10329000809168029091690286179707A0F06115E6
:1032A000710529F49091E8009E779093E80090E0F2
:1032B0006115710551F4911108C08091E80082FFF9
:1032C00034C080E00895BC01F2CF80916102882370
:1032D000C1F18530C1F18091E80083FD30C080915B
:1032E000E80082FDEACF8091E80080FFE1CF809185
:1032F000F3002091F200382F6115710519F0283084
:10330000310558F091E02830310509F090E0209126
:10331000E8002E772093E800CBCF81918093F100D5
:10332000615071092F5F3F4FE7CF80916102882381
:1033300041F0853041F08091E80083FFBECF81E00D
:10334000089582E0089583E00895FC018091680269
:103350009091690286179707A0F06115710529F40D
:103360008091E8008E778093E80090E06115710508
:1033700051F4911108C08091E80082FF35C080E0CF
:103380000895BC01F2CF809161028823C9F1853094
:10339000C9F18091E80083FD31C08091E80082FD91
:1033A000EACF8091E80080FFE1CF8091F300209187
:1033B000F200382F6115710519F02830310558F0E9
:1033C00091E02830310509F090E08091E8008E7797
:1033D0008093E800CBCF84918093F10031966150C7
:1033E00071092F5F3F4FE6CF80916102882341F042
:1033F000853041F08091E80083FFBDCF81E00895E2
:1034000082E0089583E00895982F973028F08F7018
:103410008093E90081E008959093E900242F762FAE
:1034200050E0981731F07091EC002091ED00509130
:10343000F00021FD02C09F5FE8CF3091EB003E7F9E
:103440003093EB003091ED003D7F3093ED003091F3
:10345000EB0031603093EB007093EC002093ED00B3
:103460005093F0002091EE0027FDE5CF80E0089515
:103470008091620287FF13C08091E80082FF06C03E
:103480008091E8008B778093E80004C0809161020E
:103490008111F2CF0895809161028823D9F3809140
:1034A000E80080FFF8CF8091E8008E77ECCF209184
:1034B000E4003091E50095E6A9012091EC00822F0F
:1034C000817020FF06C08091E80080FF06C080E088
:1034D00008952091E80022FD1AC08091610288239E
:1034E00089F0853089F08091EB0085FD0FC0209137
:1034F000E4003091E50042175307F9F29150E1F6EC
:1035000084E0089582E0089583E0089581E00895BD
:103510000E94F61A0E94FE1AE0EEF0E080818160BF
:103520008083E8EDF0E080818F77808319BCA7ED80
:10353000B0E08C918E7F8C9380818F7E80831092FF
:10354000600208950F931F93CF93DF930E94F61AA2
:103550000E94FE1AC8EDD0E088818F778883888129
:103560008068888388818F7D888319BC109261026E
:1035700010925D0210925F0210925E0200EE10E067
:10358000F80180818B7F808388818160888342E01D
:1035900060E080E00E94041AE1EEF0E080818E7F1E
:1035A0008083E2EEF0E080818160808380818860AA
:1035B0008083F80180818E7F808388818061888309
:1035C000DF91CF911F910F910895E8EDF0E0808198
:1035D0008F7E8083E7EDF0E080818160808384E0EE
:1035E00082BF81E0809360020C94A21AE8EDF0E0C3
:1035F00080818E7F80831092E20008951092DA001D
:103600001092E10008951F920F920FB60F921124AD
:103610002F933F934F935F936F937F938F939F93DA
:10362000AF93BF93EF93FF938091E10082FF0BC0B4
:103630008091E20082FF07C08091E1008B7F809340
:10364000E1000E946D1D8091DA0080FF19C0809119
:10365000D80080FF15C08091DA008E7F8093DA0059
:103660008091D90080FF96C080E189BD82E189BD4B
:1036700009B400FEFDCF81E0809361020E946D17C6
:103680008091E10080FF19C08091E20080FF15C0A9
:103690008091E2008E7F8093E2008091E200806161
:1036A0008093E2008091D80080628093D80019BC9A
:1036B00085E0809361020E947F178091E10084FF82
:1036C0002BC08091E20084FF27C080E189BD82E1A8
:1036D00089BD89B5982F917080FFFBCF8091D8006C
:1036E0008F7D8093D8008091E1008F7E8093E100F0
:1036F0008091E2008F7E8093E2008091E200816001
:103700008093E20080915D02882309F449C084E03F
:10371000809361020E9480178091E10083FF29C09D
:103720008091E20083FF25C08091E100877F809334
:10373000E10082E08093610210925D028091E100DD
:103740008E7F8093E1008091E2008E7F8093E20083
:103750008091E20080618093E20042E060E080E0DE
:103760000E94041A8091F00088608093F0000E940B
:103770007E17FF91EF91BF91AF919F918F917F91B4
:103780006F915F914F913F912F910F900FBE0F90CE
:103790001F90189519BC109261020E947B1770CF80
:1037A0008091E30087FD93E090936102B3CF1F9275
:1037B0000F920FB60F9211242F933F934F935F9365
:1037C0006F937F938F939F93AF93BF93CF93DF9329
:1037D000EF93FF93D091E900DF708091EC00C82F48
:1037E000C17080FDC0E81092E9008091F000877FF1
:1037F0008093F00078940E941B1C1092E900809145
:10380000F00088608093F000CD2BCF70C093E9006A
:10381000FF91EF91DF91CF91BF91AF919F918F91E8
:103820007F916F915F914F913F912F910F900FBEBC
:103830000F901F9018951F93CF93DF93CDB7DEB7EE
:10384000AA970FB6F894DEBF0FBECDBF82E692E016
:103850002091F100FC012193CF01F2E08A369F070D
:10386000B9F70E948B178091E80083FF1EC18091F9
:103870006202909163029A3008F017C1E92FF0E0DC
:10388000EE5DF14E0C949D1D803899F0823809F060
:103890000CC1809166028F70873008F006C180935A
:1038A000E9008091EB0085FB882780F91092E90000
:1038B00006C080915E0290915F02911182609091AA
:1038C000E800977F9093E8008093F1001092F10058
:1038D0008091E8008E77E5C0882309F4D3C0823058
:1038E00009F0E3C0809164028111D6C08091660224
:1038F0008F702FEF280F263008F0D7C08093E90093
:103900002091EB0020FFC8C0933031F48091EB0090
:1039100080628093EB00C0C09091EB009061909327
:10392000EB0021E030E001C0220F8A95EAF72093F6
:10393000EA001092EA008091EB008860EACF8111E2
:10394000B4C0109164021F778091E3008078812BCE
:103950008093E3008091E800877F8093E8000E94D5
:10396000381A8091E80080FFFCCF8091E3008068E6
:103970008093E30082E0111183E08093610295C09F
:103980008058823008F091C0809164029091650265
:103990008C3D23E09207A1F583E08A838AE2898344
:1039A0004FB7F894DE01139620E03EE051E2E32F9A
:1039B000F0E050935700E49120FF03C0E295EF70D0
:1039C0003F5FEF708E2F90E0EA30C0F0C7968D9386
:1039D0009D932F5F243159F74FBF8091E800877F77
:1039E0008093E8006AE270E0CE0101960E944719D8
:1039F0008091E8008B778093E80057C0C096E7CFAE
:103A00006091660270916702AE014F5F5F4F0E9446
:103A10008818BC01892B09F448C09091E800977F71
:103A20009093E80089819A810E94A519E1CF80389E
:103A3000E1F58091E800877F8093E80080915D0246
:103A40008093F10045CF811130C090916402923093
:103A500060F58091E800877F8093E80090935D0295
:103A60000E94381A80915D02882311F084E005C01D
:103A70008091E30087FDFACF81E0809361020E948C
:103A8000811713C080916402813079F481E0933012
:103A900009F080E080935F021092E9008091E800D5
:103AA000877F8093E8000E94381A8091E80083FFA6
:103AB0000AC08091E800877F8093E8008091EB0046
:103AC00080628093EB00AA960FB6F894DEBF0FBE1B
:103AD000CDBFDF91CF911F9108950895CF9380912D
:103AE00061028823A1F0C091E900CF709091EC00B1
:103AF000892F817090FD80E8C82B1092E900809199
:103B0000E80083FD0E941B1CCF70C093E900CF9199
:103B1000089597FB072E16F4009407D077FD09D07F
:103B20000E94A31D07FC05D03EF4909581959F4F00
:103B30000895709561957F4F0895EE0FFF1F0590D2
:103B4000F491E02D0994AA1BBB1B51E107C0AA1FE9
:103B5000BB1FA617B70710F0A61BB70B881F991F2E
:103B60005A95A9F780959095BC01CD010895FB0168
:103B7000DC0104C08D910190801921F44150504026
:103B8000C8F7881B990B0895F999FECF92BD81BDA6
:103B9000F89A992780B50895A8E1B0E042E050E096
:103BA0000C94F81D262FF999FECF92BD81BDF89A8D
:103BB000019700B4021639F01FBA20BD0FB6F89471
:103BC000FA9AF99A0FBE08950396272F0E94D31DE3
:103BD0000E94D21D252F0E94D31D242F0C94D31D8B
:103BE0000196272F0E94D31D0C94D21DDC01CB011E
:103BF000FC01F999FECF06C0F2BDE1BDF89A3196FD
:103C000000B40D9241505040B8F70895F894FFCF9A
:103C100074037403CC03CC031E043A04A103A10370
:103C20004504D104E004E004AA05AA05B305B305E0
:103C3000B505B305B305B305AA05AA05BA05B305CD
:103C4000B305BA05441C6C1C551D6C1C551D9F1CEE
:083C5000C01C551D171D231DAA
:103C5800FC012808641E140A321EE91640171F17B3
:103C68001B17171701E200E900EA00B500B600B714
:103C780000CD008301CC008A019201940121022326
:103C88000224022502260227022A02B300B4006F8A
:103C9800007000818283E200E900EA00B500B60006
:103CA800B700CD008301CC008A0192019401210262
:103CB800230224022502260227022A02B300B400A6
:103CC8006F007000818283F7949593929190676654
:0A3CD8003635349796F0F1F4F6F556
:00000001FF
